:100000000C9434000C9451000C9451000C94510049
:100010000C9451000C9451000C9451000C9451001C
:100020000C9451000C9451000C9451000C9451000C
:100030000C9451000C9451000C9451000C945100FC
:100040000C9451000C9451000C9451000C945100EC
:100050000C9451000C9451000C9451000C945100DC
:100060000C9451000C94510011241FBECFEFD4E02A
:10007000DEBFCDBF12E0A0E0B1E0E8E7FCE002C0E7
:1000800005900D92A639B107D9F712E0A6E9B2E0C2
:1000900001C01D92AC39B107E1F70E94CE020C9469
:1000A0003B060C9400001092C50082E08093C400CF
:1000B00088E18093C10086E08093C200089502C069
:1000C0008091C6008091C00087FDFACF08951F93EC
:1000D000182F8A3019F48DE00E9467008091C000CB
:1000E00085FFFCCF1093C60080E090E01F9108953B
:1000F0001F93BC018091C00087FFFCCF1091C60008
:10010000812F0E946700812F99271F910895609188
:100110009802709199028BE190E00E94080360912F
:100120009802709199028BE590E00E94080360911B
:1001300098027091990288E490E00E94080360910F
:100140009802709199028BE190E00E9408036091FF
:100150009802709199028BE590E00E9408036091EB
:100160009802709199028AE490E00E940803089531
:1001700060919802709199028BE190E00E940803CF
:1001800060919802709199028BE590E00E940803BB
:10019000609198027091990280E390E00E940803B8
:1001A00060919802709199028DE690E00E94080398
:1001B00008959C012A9880EF8EBD0DB407FEFDCFF7
:1001C000832F99278EBD0DB407FEFDCF2EBD0DB434
:1001D00007FEFDCF6EBD0DB407FEFDCF2A9A089530
:1001E0009C012A988FE08EBD0DB407FEFDCF832FB2
:1001F00099278EBD0DB407FEFDCF2EBD0DB407FEB1
:10020000FDCF1EBC0DB407FEFDCF2A9A8EB59927EF
:1002100008952F923F924F925F926F927F928F92AA
:100220009F92AF92BF92CF92DF92EF92FF920F9385
:100230001F93CF93DF9360E880E090E00E94D900A5
:100240004AEF642E712CC3010197F1F780E090E032
:100250000E94F00099279F938F9384E191E09F93F0
:100260008F930E94350381E090E09F938F93C2E0CB
:10027000D0E0DF93CF9338EA232E312C3F922F9298
:1002800020EC422E512C5F924F9285E291E09F9399
:100290008F930E94350360EC81E090E00E94D900CA
:1002A00068EA82E090E00E94D90062E083E090E09A
:1002B0000E94D90061E084E090E00E94D900C3016F
:1002C0000197F1F784E090E00E94F000C82E83E0EF
:1002D00090E00E94F000E82E82E090E00E94F000A2
:1002E000082F81E090E00E94F000DD24DF92CF92A1
:1002F000FF24FF92EF9211271F930F9399279F934B
:100300008F938AE491E09F938F930E94350386EF49
:1003100090E09F938F9388E590E09F938F938EED6D
:1003200090E09F938F9386E390E09F938F9386E175
:1003300090E09F938F931F921F9285E691E09F9389
:100340008F930E9435038DB79EB786960FB6F894AB
:100350009EBF0FBE8DBF60E089E090E00E94D90093
:1003600066E18AE090E00E94D90066E38BE090E0CD
:100370000E94D9006EED8CE090E00E94D90068E503
:100380008DE090E00E94D90066EF8EE090E00E9440
:10039000D900C3010197F1F78EE090E00E94F000D0
:1003A000882E8DE090E00E94F000A82E8CE090E076
:1003B0000E94F000C82E8BE090E00E94F000E82E32
:1003C0008AE090E00E94F000082F89E090E00E940F
:1003D000F00099249F928F92BB24BF92AF92DD24AC
:1003E000DF92CF92FF24FF92EF9211271F930F937A
:1003F00099279F938F938BE991E09F938F930E940E
:1004000035031F921F928FEF90E09F938F939F93DE
:100410008F939F938F9388EC91E09F938F930E948B
:1004200035036FEF85E090E00E94D9006FEF86E022
:1004300090E00E94D9006FEF87E090E00E94D90021
:1004400060E088E090E00E94D900C3010197F1F7D5
:1004500088E090E00E94F000C82E87E090E00E94C3
:10046000F000E82E86E090E00E94F000082F85E082
:1004700090E00E94F000DD24DF92CF92FF24FF92F3
:10048000EF9211271F930F9399279F938F938EEECF
:1004900091E09F938F930E9435038DB79EB782960C
:1004A0000FB6F8949EBF0FBE8DBF8AE090E09F9379
:1004B0008F93DF93CF933F922F925F924F928AE078
:1004C00092E09F938F930E94350360EC8FE090E061
:1004D0000E94D90068EA80E190E00E94D90062E0C1
:1004E00081E190E00E94D9006AE082E190E00E9400
:1004F000D900C3010197F1F782E190E00E94F0007A
:10050000C82E81E190E00E94F000E82E80E190E0AA
:100510000E94F000082F8FE090E00E94F000DD24A0
:10052000DF92CF92FF24FF92EF9211271F930F9338
:1005300099279F938F938AE292E09F938F930E94D3
:10054000350386E492E00E944E0365E58AE190E07F
:100550000E94D90065E58BE190E00E94D90084E615
:1005600092E00E944E038DB79EB744960FB6F89462
:100570009EBF0FBE8DBFDF91CF911F910F91FF9056
:10058000EF90DF90CF90BF90AF909F908F907F9033
:100590006F905F904F903F902F900895CFEFD4E0F1
:1005A000DEBFCDBF8FEF8AB91BB880E091E090939A
:1005B00097028093960290939902809398021092EA
:1005C000C50082E08093C40088E18093C10086E08A
:1005D0008093C2000E94B8000E9487000E94B80069
:1005E0000E94870002C08091C6008091C00087FDF4
:1005F000FACF8CE284B92A9A80E58CBD8DB58160F2
:100600008DBD83E892E00E944E030E940901FFCF56
:100610000F931F93CF93DF938C01EB018B8199276D
:1006200081FF1BC082FF0DC02E813F818C819D8187
:100630002817390764F4E881F9810193F983E88385
:1006400006C0E885F985802F0995892B31F48E81C4
:100650009F8101969F838E8302C00FEF1FEFC80119
:10066000DF91CF911F910F910895A2E0B0E0EBE3ED
:10067000F3E00C941406E7E0F0E0EC0FFD1F61914D
:100680007191FA83E983AF01809198029091990268
:100690000E948103E2E022960C9430060F931F9390
:1006A000CF93DF938C01E0919802F09199028381BE
:1006B00081FF1FC0C0E0D0E00AC0FD012085318568
:1006C000BD01F9010995892B11F0CFEFDFEFF8019A
:1006D00081918F01A0919802B0919902882369F7C6
:1006E000FD0120853185BD018AE0F9010995892B3D
:1006F00011F0CFEFDFEFCE01DF91CF911F910F917E
:100700000895ABE0B0E0E7E8F3E00C9406062C01B6
:100710005B018A01FC0117821682838181FD04C07E
:100720008FEF9FEFF9C18301F2013381F50133FDB2
:10073000859133FF81915F01882309F4E7C18532F8
:1007400039F433FD859133FF81915F01853291F456
:10075000B20199270E940803E7CF982FFFE1FF1508
:10076000F8F09B3291F09C3250F4903281F0933249
:10077000B9F413C0982FFF24CC248824F2CF9D32E3
:1007800049F0903369F421E028C042E0F42A54E0B3
:10079000F52A2CC088E0F82A29C0E0E1FE2A26C00C
:1007A000F7FC2EC0292F20532A3090F4F6FE07C004
:1007B0008AE0889EC0011124822E880E17C08AE02C
:1007C000C89EC0011124C22EC80EF0E2FF2A0EC03E
:1007D0009E3229F4F6FC9AC120E4F22A07C09C3626
:1007E00019F440E8F42A02C0983651F4F50133FDBB
:1007F000859133FF81915F01882309F0AECF90E0AE
:10080000892F8554833018F08052833038F424E0E7
:10081000622E712C600E711E8FE30FC0933631F083
:10082000933799F0933509F062C026C092E0692EA3
:10083000712C600E711EF801808189838E010F5F1B
:100840001F4F81E0882E912C13C0B2E06B2E712CCB
:10085000600E711EF80100811181F6FC03C06FEF7C
:100860007FEF02C0682D7727C8010E949B054C01CD
:10087000AFE7DA2EDF2016C0F2E06F2E712C600E8B
:10088000711EF80100811181F6FC03C06FEF7FEF4C
:1008900002C0682D7727C8010E9490054C01E0E84E
:1008A000DE2EDF28D3FE09C0EE24FF241BC0B201D8
:1008B00080E290E00E940803CA948C2D9927881644
:1008C0009906A8F3F1CFF801D7FC8591D7FE819165
:1008D0008F01B20199270E940803C110CA9408949D
:1008E000E11CF11CE814F90471F710E00AC1943618
:1008F00011F0993699F5F7FE0BC074E0672E712C54
:10090000600E711EF80160817181828193810EC039
:1009100062E0662E712C600E711EF801808191815B
:100920009C01B901882777FD8095982F1F2D1F7690
:1009300097FF08C090958095709561957F4F8F4F78
:100940009F4F10687E010894E11CF11C2AE030E002
:10095000A7010E94A605982E9E184EC0953729F42F
:100960003FEEF3222AE030E022C049EFF4229F3626
:1009700061F0903720F4983509F0C8C012C0903764
:1009800039F0983709F0C2C005C028E030E00FC048
:1009900050E1F52AF4FE02C084E0F82A20E130E0BC
:1009A00006C0F4FE02C0E6E0FE2A20E132E0F7FED7
:1009B0000BC054E0652E712C600E711EF801608131
:1009C0007181828193810CC042E0642E712C600E93
:1009D000711EF80180819181AC01BA0188279927A5
:1009E000AE014F5F5F4F0E94A6059E012F5F3F4FF4
:1009F000982E921A1F2D1F7716FD02C0D12E05C00A
:100A00009EEFD92ED122981410F0092D0CC02D2D57
:100A1000332724FF19C022FF02C0082D08C08EEE24
:100A2000D82ED122082D2D2D332724FF0EC0FE01F4
:100A3000E90DF11D8081803319F459EED52209C0EA
:100A40000F5F22FF06C004C0082D8D2D867809F0A7
:100A50000F5FED2CFF24E3FC12C0E0FE0DC00C156F
:100A600008F058C08C2C801A890C0DC0B20180E2AD
:100A700090E00E9408030F5F0C15C0F304C00C1532
:100A800010F4C01A01C0CC24E4FE10C0B20180E30F
:100A900090E00E940803E2FE1EC0E1FE03C088E56C
:100AA00090E002C088E790E0B2010CC08D2D8678FE
:100AB00091F0E1FE02C08BE201C080E2D7FC8DE242
:100AC000B20199270E94080306C0B20180E390E0BA
:100AD0000E9408038A949814C0F3192D1150FE0146
:100AE000E10FF11D8181B20199270E9408031123B2
:100AF00009F4FBCEF3CFB20180E290E00E9408033C
:100B000011508C2D81951817B1F70DCEF201868109
:100B1000978102C0892CB7CFE0E12B960C94220676
:100B2000FC010590615070400110D8F780959095B8
:100B30008E0F9F1F0895FC016150704001900110BD
:100B4000D8F7809590958E0F9F1F0895FA01AA27D8
:100B5000283051F1203181F1E8946F936E7F6E5F00
:100B60007F4F8F4F9F4FAF4FB1E03ED0B4E03CD0AE
:100B7000670F781F891F9A1FA11D680F791F8A1F91
:100B8000911DA11D6A0F711D811D911DA11D20D0F8
:100B900009F468943F912AE0269F11243019305DB2
:100BA0003193DEF6CF010895462F4770405D4193A3
:100BB000B3E00FD0C9F7F6CF462F4F70405D4A33F0
:100BC00018F0495D31FD4052419302D0A9F7EACFB8
:100BD000B4E0A6959795879577956795BA95C9F7E7
:100BE00000976105710508959B01AC010A2E0694DA
:100BF0005795479537952795BA95C9F7620F731F93
:100C0000841F951FA01D08952F923F924F925F92CF
:100C10006F927F928F929F92AF92BF92CF92DF920C
:100C2000EF92FF920F931F93CF93DF93CDB7DEB771
:100C3000CA1BDB0B0FB6F894DEBF0FBECDBF099405
:100C40002A88398848885F846E847D848C849B845C
:100C5000AA84B984C884DF80EE80FD800C811B816A
:100C6000AA81B981CE0FD11D0FB6F894DEBF0FBE99
:080C7000CDBFED010895FFCF97
:100C78000000000300000000670078000000001674
:100C880036DE58F652656164696E67204D523A2027
:100C980025640A0A0053657474696E672047617495
:100CA8006577617920416464726573732025642EC9
:100CB80025642E25642E25640A0052656164696ED8
:100CC80067204741523A2025642E25642E25642E3C
:100CD80025640A0A0053657474696E6720536F753A
:100CE800726365204164647265737320252E3278BF
:100CF8003A252E32783A252E32783A252E32783A0D
:100D0800252E32783A252E32780A005265616469B8
:100D18006E67205341523A20252E32783A252E32DA
:100D2800783A252E32783A252E32783A252E32789E
:100D38003A252E32780A0A0053657474696E672062
:100D4800537562204D61736B2041646472657373DF
:100D58002025642E25642E25642E25640A005265FC
:100D68006164696E6720535542523A2025642E25E6
:100D7800642E25642E25640A0A0053657474696E0E
:100D88006720495020416464726573732025642E7E
:100D980025642E25642E25640A0052656164696EF7
:100DA8006720534950523A2025642E25642E256425
:100DB8002E25640A0A0053657474696E67205769A2
:100DC8007A6E657420524D535220616E6420544DE2
:100DD80053520A00446F6E652057697A6E65742015
:100DE800573531303020496E697469616C697A65AC
:100DF80064210057697A6E65742057353130302088
:060E0800496E69740A0046
:00000001FF
