:100000000C9462000C948A000C948A000C948A0070
:100010000C948A000C948A000C948A000C948A0038
:100020000C948A000C948A000C948A000C948A0028
:100030000C948A000C948A000C948A000C948A0018
:100040000C94D2010C948A000C9474020C948A00D3
:100050000C948A000C948A000C948A000C948A00F8
:100060000C948A000C948A000000000024002700F1
:100070002A0000000000250028002B0000000000DE
:1000800023002600290004040404040404040202DA
:100090000202020203030303030301020408102007
:1000A0004080010204081020010204081020000012
:1000B0000007000201000003040600000000000029
:1000C0000000BD0311241FBECFEFD8E0DEBFCDBFBF
:1000D00013E0A0E0B1E0E0EEFEE002C005900D927A
:1000E000A23AB107D9F715E0A2EAB3E001C01D9228
:1000F000A83DB107E1F710E0C4ECD0E004C02297BE
:10010000FE010E946A07C23CD107C9F70E94CD01D7
:100110000C946E070C940000DC01E2EAF3E081E04D
:100120001DC0322F3053882361F0832F3A3020F0E6
:100130008750803108F080528295807F808380E0F4
:100140000CC09081832F3A3028F0822F8753803162
:1001500008F08052980F919381E011962C91222300
:1001600021F095E0E233F907E1F6E25AF340F0932B
:100170003305E093320508954F925F926F927F921C
:100180008F929F92AF92BF92CF92DF92EF92FF92A7
:100190000F931F93DF93CF9300D0CDB7DEB75A985C
:1001A00085EC95E040E855E260E070E00E94B10225
:1001B0008091910361E00E94540285EC95E067E232
:1001C00070E00E94E10480919303909194030E9457
:1001D0008C006091A4037091A50380E090E00E94E0
:1001E000CC052DE33AE047E750E40E9482067B010C
:1001F0008C0120E030E040E050E00E947E06882341
:100200004CF0C801B70120E030E040E05FE30E941D
:10021000370508C0C801B70120E030E040E05FE3E7
:100220000E9436050E949B058B01E0919503F09199
:1002300096035085418560E070E085EC95E020E113
:1002400030E00E942B054091A40350E060E070E094
:1002500085EC95E020E130E00E942B054091A5035C
:1002600050E060E070E085EC95E020E130E00E9435
:100270002B0585EC95E0B8010E94E10485E496E841
:10028000ABEBB1E48093340590933505A09336052C
:10029000B09337054090950350909603F2019481F6
:1002A000858122E0622E712C680E791E660C771C07
:1002B0008824992459C05A9AF801F084E184B7013E
:1002C00080E090E00E94CC0525E436E84BEB51E459
:1002D0000E94820620E030E040E451E40E943605AE
:1002E0000E94A0051A82198205C089819A8101960F
:1002F0009A83898389819A8186179707B0F35A98E0
:10030000F801D284C384B60180E090E00E94CC055D
:1003100025E436E84BEB51E40E94820620E030E011
:1003200040E451E40E9436050E94A0051A82198219
:1003300005C089819A8101969A83898389819A81EE
:1003400086179707B0F382E090E0A80EB91E0C5F05
:100350001F4FA614B70408F4AECF0894811C911C5B
:1003600094E68916910429F0820184E0A82EB12C2C
:10037000F0CF5A980F900F90CF91DF911F910F916E
:10038000FF90EF90DF90CF90BF90AF909F908F90B5
:100390007F906F905F904F9008950E941A020E9484
:1003A000BC00FFCF1F920F920FB60F9211242F9314
:1003B0003F938F939F93AF93BF9380913C05909110
:1003C0003D05A0913E05B0913F0530914005019655
:1003D000A11DB11D232F2D5F2D3720F02D57019624
:1003E000A11DB11D2093400580933C0590933D05D0
:1003F000A0933E05B0933F05809138059091390553
:10040000A0913A05B0913B050196A11DB11D8093C5
:10041000380590933905A0933A05B0933B05BF91F9
:10042000AF919F918F913F912F910F900FBE0F90A1
:100430001F901895789484B5826084BD84B58160DE
:1004400084BD85B5826085BD85B5816085BDEEE6DC
:10045000F0E0808181608083E1E8F0E0808182606B
:100460008083808181608083E0E8F0E0808181602A
:100470008083E1EBF0E0808184608083E0EBF0E05A
:10048000808181608083EAE7F0E0808184608083FE
:1004900080818260808380818160808380818068A8
:1004A00080831092C1000895282F30E0C90186563C
:1004B0009F4FFC0194912A573F4FF9018491882363
:1004C00091F0E82FF0E0EE0FFF1FE859FF4FA591E4
:1004D000B491662329F48C91909589238C93089587
:1004E0008C91892B8C9308951F920F920FB60F92C7
:1004F00011242F933F934F935F936F937F938F9329
:100500009F93AF93BF93EF93FF934091C600E09109
:10051000C105F091C205CF01019660E870E00E942C
:1005200004079C018091C3059091C40528173907E1
:1005300039F0EF5BFA4F40833093C2052093C10539
:10054000FF91EF91BF91AF919F918F917F916F91AB
:100550005F914F913F912F910F900FBE0F901F9081
:1005600018955F926F927F928F929F92AF92BF92F7
:10057000CF92DF92EF92FF920F931F93CF93DF936F
:10058000EC013A014B01413482E458078FE06807DF
:1005900080E078070CF07FC060E874E88EE190E0BE
:1005A000A40193010E94390721503040404050403F
:1005B000CA01B90122E030E040E050E00E94390772
:1005C00059016A01A60195012095309540955095F5
:1005D00094E0220F331F441F551F9A95D1F760E016
:1005E00074E284EF90E00E943907CA01B9012FEF4D
:1005F00030E040E050E00E94E506A40193010E9433
:100600003907C90181509F4F181619061CF4522E44
:100610005A9403C055245394521A60E079E08DE354
:1006200090E0A40193010E943907215030404040DE
:100630005040CA01B90122E030E040E050E00E94A1
:100640003907209530954095509583E0220F331F50
:10065000441F551F8A95D1F760E074E284EF90E063
:100660000E943907CA01B9012FEF30E040E050E0A5
:100670000E94E506A40193010E943907C901815037
:100680009F4F181619061CF4822F815002C081E07A
:10069000821B851500F5E885F98581E090E00A88E0
:1006A00002C0880F991F0A94E2F7808360E079E026
:1006B0008DE390E0A40193010E943907215030405E
:1006C00040405040CA01B90122E030E040E050E033
:1006D0000E94390704C0E885F98510829501EC81F4
:1006E000FD813083EE81FF812083EA85FB852081B7
:1006F00041E050E0CA010E8402C0880F991F0A949D
:10070000E2F7282B2083EA85FB852081CA010F842C
:1007100002C0880F991F0A94E2F7282B2083EA85EC
:10072000FB858081088802C0440F551F0A94E2F7B8
:10073000842B8083DF91CF911F910F91FF90EF90D9
:10074000DF90CF90BF90AF909F908F907F906F90F1
:100750005F900895FC01A085B18521898C9190E07E
:10076000022E02C0959587950A94E2F780FFF6CF96
:100770000484F585E02D608308958BE993E09093E0
:10078000C6058093C50581E495E09093C8058093E4
:10079000C70585EC90E09093CA058093C90584EC69
:1007A00090E09093CC058093CB0580EC90E0909303
:1007B000CE058093CD0581EC90E09093D005809399
:1007C000CF0586EC90E09093D2058093D10584E02C
:1007D0008093D30583E08093D40587E08093D5058B
:1007E00085E08093D60581E08093D70508950F9327
:1007F0001F93CF93DF938C01EB0109C02196D801A1
:10080000ED91FC910190F081E02DC801099568817E
:100810006623A1F7DF91CF911F910F910895EF9279
:10082000FF920F931F93CF93DF938C017B01EA011B
:100830000CC0D7016D917D01D801ED91FC91019023
:10084000F081E02DC80109952197209791F7DF915C
:10085000CF911F910F91FF90EF9008950F931F93E9
:100860008C01DC01ED91FC910190F081E02D6DE0B7
:100870000995D801ED91FC910190F081E02DC8011E
:100880006AE009951F910F9108952F923F924F9220
:100890005F926F927F928F929F92AF92BF92CF9210
:1008A000DF92EF92FF920F931F93DF93CF93CDB719
:1008B000DEB7A0970FB6F894DEBF0FBECDBF1C0108
:1008C0006A017B01411551056105710549F4DC019F
:1008D000ED91FC910190F081E02D60E3099554C009
:1008E000882499245401422E55246624772401E05B
:1008F00010E00C0F1D1F080D191DC701B601A30143
:1009000092010E941707F80160830894811C911CD2
:10091000A11CB11CC701B601A30192010E941707D7
:10092000C901DA016C017D01C114D104E104F104B3
:10093000F1F681E0E82EF12CEC0EFD1EE80CF91C1E
:100940003E010894611C711CD501C4010197A109E5
:10095000B1096C01C818D90814C0F601EE0DFF1DCD
:1009600060816A3010F4605D01C0695CD101ED9175
:10097000FC910190F081E02DC10109950894E108F6
:10098000F1086E147F0449F7A0960FB6F894DEBF05
:100990000FBECDBFCF91DF911F910F91FF90EF90D0
:1009A000DF90CF90BF90AF909F908F907F906F908F
:1009B0005F904F903F902F9008952AE00E94450449
:1009C00008950F931F938C01AB0160E070E00E94CB
:1009D000DD04C8010E942E041F910F910895EF922B
:1009E000FF920F931F93CF93DF93EC017A018B015A
:1009F00077FF0FC0E881F9810190F081E02D6DE271
:100A0000099510950095F094E094E11CF11C011DEE
:100A1000111DCE01B801A7012AE00E944504DF9113
:100A2000CF911F910F91FF90EF900895DC01211558
:100A3000310541F4ED91FC910190F081E02D642F9E
:100A4000099508952A30310519F40E94EF0408959C
:100A50000E94450408950F931F938C010E94160570
:100A6000C8010E942E041F910F9108955058BB2772
:100A7000AA270ED009C1FAD030F0FFD020F031F40F
:100A80009F3F11F41EF4EFC00EF4E095E7FBE5C0C4
:100A9000E92F0BD180F3BA17620773078407950714
:100AA00018F071F49EF523C10EF4E0950B2EBA2FC9
:100AB000A02D0B01B90190010C01CA01A001112464
:100AC000FF27591B99F0593F50F4503E68F11A1610
:100AD000F040A22F232F342F4427585FF3CF4695A1
:100AE00037952795A795F0405395C9F77EF41F16C3
:100AF000BA0B620B730B840BBAF09150A1F0FF0F8D
:100B0000BB1F661F771F881FC2F70EC0BA0F621F78
:100B1000731F841F48F4879577956795B795F79568
:100B20009E3F08F0B3CF9395880F08F09927EE0FFA
:100B300097958795089504D06894B111D9C0089508
:100B4000BCD088F09F5790F0B92F9927B751A0F0EB
:100B5000D1F0660F771F881F991F1AF0BA95C9F751
:100B600012C0B13081F0C3D0B1E00895C0C0672F8A
:100B7000782F8827B85F39F0B93FCCF38695779501
:100B80006795B395D9F73EF49095809570956195EA
:100B90007F4F8F4F9F4F0895E89409C097FB3EF415
:100BA00090958095709561957F4F8F4F9F4F9923BA
:100BB000A9F0F92F96E9BB279395F6958795779538
:100BC0006795B795F111F8CFFAF4BB0F11F460FFF8
:100BD0001BC06F5F7F4F8F4F9F4F16C0882311F050
:100BE00096E911C0772321F09EE8872F762F05C064
:100BF000662371F096E8862F70E060E02AF09A95FF
:100C0000660F771F881FDAF7880F9695879597F9F3
:100C10000895990F0008550FAA0BE0E8FEEF16168D
:100C20001706E807F907C0F012161306E407F507E0
:100C300098F0621B730B840B950B39F40A2661F054
:100C4000232B242B252B21F408950A2609F4A140F7
:100C5000A6958FEF811D811D089597F99F6780E804
:100C600070E060E008959FEF80EC089500240A94FE
:100C70001616170618060906089500240A94121677
:100C80001306140605060895092E0394000C11F4AA
:100C9000882352F0BB0F40F4BF2B11F460FF04C057
:100CA0006F5F7F4F8F4F9F4F089557FD9058440FB0
:100CB000551F59F05F3F71F04795880F97FB991FBB
:100CC00061F09F3F79F08795089512161306140678
:100CD000551FF2CF4695F1DF08C016161706180605
:100CE000991FF1CF86957105610508940895E894E0
:100CF000BB2766277727CB0197F908958ADF08F489
:100D00008FEF08950BD0C0CFB1DF28F0B6DF18F019
:100D1000952309F0A2CFA7CF1124EACFC6DFA0F315
:100D2000959FD1F3950F50E0551F629FF001729F80
:100D3000BB27F00DB11D639FAA27F00DB11DAA1F9F
:100D4000649F6627B00DA11D661F829F2227B00DEC
:100D5000A11D621F739FB00DA11D621F839FA00D77
:100D6000611D221F749F3327A00D611D231F849FC7
:100D7000600D211D822F762F6A2F11249F5750401E
:100D80008AF0E1F088234AF0EE0FFF1FBB1F661FB9
:100D9000771F881F91505040A9F79E3F510570F072
:100DA0005CCFA6CF5F3FECF3983EDCF3869577955A
:100DB0006795B795F795E7959F5FC1F7FE2B880F6D
:100DC000911D9695879597F90895629FD001739F1D
:100DD000F001829FE00DF11D649FE00DF11D929FD7
:100DE000F00D839FF00D749FF00D659FF00D992716
:100DF000729FB00DE11DF91F639FB00DE11DF91F3A
:100E0000BD01CF011124089597FB092E07260AD0B2
:100E100077FD04D049D006D000201AF47095619572
:100E20007F4F0895F6F7909581959F4F0895A1E221
:100E30001A2EAA1BBB1BFD010DC0AA1FBB1FEE1F54
:100E4000FF1FA217B307E407F50720F0A21BB30B9F
:100E5000E40BF50B661F771F881F991F1A9469F71B
:100E600060957095809590959B01AC01BD01CF0177
:100E7000089597FB092E05260ED057FD04D0D7DF25
:100E80000AD0001C38F450954095309521953F4F7D
:100E90004F4F5F4F0895F6F7909580957095619547
:100EA0007F4F8F4F9F4F0895AA1BBB1B51E107C077
:100EB000AA1FBB1FA617B70710F0A61BB70B881FEA
:100EC000991F5A95A9F780959095BC01CD01089579
:100ED000EE0FFF1F0590F491E02D0994F894FFCFD9
:100EE00030303030303036633030353030303030C4
:100EF0003030306130303436303030613030316550
:100F0000303030613030343630303061303034366B
:100F10003030306130303165303030613030316503
:100F2000303030613030343630303061303034364B
:100F3000303030613030316530303061303034360F
:100F400030303061303031653030306130303436FF
:100F500030303061303031653030306130303436EF
:100F600030303061303031653030306130363630DD
:100F700030303061303034363030306130303165CF
:100F800030303061303034363030306130303436EB
:100F900030303061303031653030306130303436AF
:100FA0003030306130303165303030613030316573
:100FB000303030613030343630303061303031658F
:100FC000303030613030343630303061303031657F
:100FD000303030613030343630303061303031656F
:100FE0003030306130303436303030613036363089
:100FF000303030613030343630303061303031654F
:10100000303030613030343630303061303034366A
:101010003030306130303165303030613030316502
:10102000303030613030343630303061303034364A
:10103000303030613030316530303061303034360E
:1010400030303061303031653030306130303436FE
:1010500030303061303031653030306130303436EE
:1010600030303061303031653030306130363630DC
:1010700030303061303034363030306130303165CE
:1010800030303061303034363030306130303436EA
:1010900030303061303031653030306130303436AE
:1010A0003030306130303165303030613030316572
:1010B000303030613030343630303061303031658E
:1010C000303030613030343630303061303031657E
:1010D000303030613030343630303061303031656E
:1010E0003030306130303436303030613036363088
:1010F000303030613030343630303061303031654E
:101100003030306130303436303030613030343669
:101110003030306130303165303030613030316501
:101120003030306130303436303030613030343649
:10113000303030613030316530303061303034360D
:1011400030303061303031653030306130303436FD
:1011500030303061303031653030306130303436ED
:1011600030303061303031653030306130303061B6
:101170000002000001A20300000000AA03F7030F11
:02118000040069
:00000001FF
